:020000040800F2
:10000000D8260020DD010008E9070008C506000821
:10001000E5070008A5050008A70E0008000000007D
:10002000000000000000000000000000090B0008B4
:10003000A905000800000000710800081D0C000858
:10004000F7010008F7010008F7010008F7010008B0
:10005000F7010008F7010008F7010008F7010008A0
:10006000F7010008F7010008F7010008F701000890
:10007000F7010008F7010008F7010008F701000880
:10008000F7010008F7010008F7010008F701000870
:10009000F7010008F7010008F7010008F701000860
:1000A000F7010008F7010008F7010008F701000850
:1000B000F7010008F7010008F7010008F701000840
:1000C000F7010008F7010008F7010008F701000830
:1000D000F7010008810C0008F7010008F70100088B
:1000E000F7010008F7010008F7010008F701000810
:1000F000F7010008F7010008F7010008F701000800
:10010000F7010008F7010008F7010008F7010008EF
:10011000F7010008F7010008F7010008F7010008DF
:10012000F7010008F7010008F7010008F7010008CF
:1001300000F002F800F042F80AA090E8000C8244B7
:100140008344AAF10107DA4501D100F037F8AFF294
:10015000090EBAE80F0013F0010F18BFFB1A43F0A5
:10016000010318477417000094170000103A24BFC9
:1001700078C878C1FAD8520724BF30C830C144BF0C
:1001800004680C607047000000230024002500264E
:10019000103A28BF78C1FBD8520728BF30C148BFEA
:1001A0000B607047642900F07B80782900F0B480F0
:1001B000002070471FB51FBD10B510BD00F0BFF97E
:1001C0001146FFF7F7FF00F0DBFF00F0DDF903B4A5
:1001D000FFF7F2FF03BC00F068FE0000094880470B
:1001E00009480047FEE7FEE7FEE7FEE7FEE7FEE719
:1001F000FEE7FEE7FEE7FEE704480549054A064B31
:1002000070470000210C000831010008D8200020B0
:10021000D8260020D8220020D822002070470000D5
:100220000FB4044910B503AA029800F04BF910BCB2
:100230005DF814FB380000202DE9F0410E4604461D
:10024000002020622046E168884730B3252805D089
:10025000D4E901219047206A401CF2E7E16820467A
:1002600000278847050018D0A5F14100192802D8B9
:1002700020354FF400673246294620462760FFF7B5
:1002800091FF40B1012804D0F61D26F0070608367C
:10029000D8E7361DD6E72846DAE7206ABDE8F081C0
:1002A0002DE9F0410646002410687529314616A54F
:1002B00010D0AFF30080002802DA404213A507E017
:1002C00031688A0701D512A502E0490704D511A5B6
:1002D000012401E0AFF3008000210A2206F1240787
:1002E00009E0B0FBF2FCB0FBF2F302FB1C00303083
:1002F00078541846491C0028F3D123462A46304634
:10030000BDE8F04100F06CB8000000002D000000D6
:100310002B0000002000000070B504460D46214669
:100320001068AFF300802188090502D50F4A7A448E
:1003300002E00E4A7A440E32002104F1240305E063
:1003400000F00F060009965D5E54491C0028F7D1A5
:1003500020780023000704D5702D02D009B10223B4
:1003600011322046BDE8704000F03AB87E1500001A
:1003700030B505460B462A4613F8014B12F8010B1F
:1003800008B1A042F8D01CB1002802D06D1CF1E7E2
:10039000284630BD4FF000020429C0F0128010F052
:1003A000030C00F0A380CCF1040CBCF1020F18BFC9
:1003B00000F8012BA8BF20F8022BA1EB0C0100F0E4
:1003C00095B85FEAC17C24BF00F8012B00F8012B2F
:1003D00048BF00F8012B704770477047704770475F
:1003E0002DE9F0470D4699469246044600F124084F
:1003F0000168880604D5E06921F01001216000E061
:100400000120A84201DD471B00E00027A1697A19FD
:1004100002EB0900081AA0612078C00602D4204629
:10042000AFF30080002608E0D4E901211AF80600A5
:100430009047206A401C761C20624E45F4DB2078F1
:10044000C0060AD52046AFF3008006E0D4E90121BA
:1004500030209047206A401C2062381EA7F1010717
:10046000F4DC07E0D4E9012118F805009047206A80
:10047000401C2062281EA5F10105F3DC2046AFF3E5
:1004800000802078000602D50220BDE8F087012018
:10049000FBE7000001694A1C02610878704700B55B
:1004A0008FB0CDE901310021059105497944CDE9AD
:1004B000031011466846FFF7BFFE0FB000BD0000F5
:1004C000E5FFFFFF074B70B50D467B44FFF7E7FFE5
:1004D0000446284600F02FF810B14FF0FF3070BDF1
:1004E000204670BD4F0B00004FF0000200B51346D0
:1004F00094469646203922BFA0E80C50A0E80C5044
:10050000B1F12001BFF4F7AF090728BFA0E80C50F4
:1005100048BF0CC05DF804EB890028BF40F8042BED
:1005200008BF704748BF20F8022B11F0804F18BF5A
:1005300000F8012B7047007B00F080007047754683
:1005400000F02CF8AE4605006946534620F007003F
:10055000854618B020B5FFF74FFEBDE820404FF0AC
:1005600000064FF000074FF000084FF0000B21F09D
:100570000701AC46ACE8C009ACE8C009ACE8C0096A
:10058000ACE8C0098D46704710B50446AFF3008053
:100590002046BDE81040FFF71ABE00000048704733
:1005A0007420002000BFFEE770472DE9F0410246AD
:1005B00000250026002000230024002791F803C016
:1005C0000CF00F0591F803C00CF0100CBCF1000FFB
:1005D00003D091F802C04CEA050591F800C0BCF1C7
:1005E000000F31D0146800202BE04FF0010C0CFA02
:1005F00000F3B1F800C00CEA03069E4220D183004C
:100600004FF00F0C0CFA03F7BC4305FA03FC4CEA5D
:10061000040491F803C0BCF1280F06D14FF0010C7F
:100620000CFA00FCC2F814C00AE091F803C0BCF157
:10063000480F05D14FF0010C0CFA00FCC2F810C0B5
:10064000401C0828D1D31460B1F800C0BCF1FF0FE2
:1006500034DD546800202EE000F1080C4FF0010852
:1006600008FA0CF3B1F800C00CEA03069E4221D14F
:1006700083004FF00F0C0CFA03F7BC4305FA03FCA0
:100680004CEA040491F803C0BCF1280F05D100F135
:10069000080C08FA0CF8C2F8148091F803C0BCF1F9
:1006A000480F07D100F1080C4FF0010808FA0CF8C8
:1006B000C2F81080401C0828CED35460BDE8F081F9
:1006C0000161704700BFFEE708B50121402000F03E
:1006D000E1F84020ADF8000010208DF80300032061
:1006E0008DF8020069460948FFF75FFF402107487F
:1006F000FFF7E6FF2020ADF8000069460348FFF74A
:1007000054FF20210148FFF7DBFF08BD001801401E
:1007100010B517A0FFF784FD0A2000F033FC16A0E7
:10072000FFF77EFD0A2000F02DFC16A0FFF778FDF4
:100730000A2000F027FC16A0FFF772FD142000F03D
:1007400021FC17A0FFF76CFD142000F01BFC0A2011
:1007500000F018FC1FA0FFF763FD0A2000F012FC58
:1007600020211E48FFF716FE00201D49088010BDFD
:1007700041540D0A0000000041542B4350494E3FA4
:100780000D0A000041542B4353510D0A0000000094
:1007900041542B43474143543D312C310D0A000055
:1007A00041542B4D49504F50454E3D312C2254431E
:1007B00050222C227365727665722E6E61746170A0
:1007C00070667265652E6363222C34333332380DC4
:1007D0000A000000415445300D0A0000542000205A
:1007E0003C00002000BFFEE77047000070B500210C
:1007F00000230F22C47804B3154C246804F4E06489
:10080000C4F5E064210AC1F10403CA40447804FA43
:1008100003F184781440214309010E4C0678A15558
:10082000047804F01F050124AC4005786D11AD007B
:1008300005F1E025C5F8004109E0047804F01F0542
:100840000124AC40044D0678761145F8264070BD71
:100850000CED00E000E400E080E100E0024901432B
:10086000024A1160704700000000FA050CED00E03C
:100870007047000029B1064AD2690243044BDA618D
:1008800004E0034AD2698243014BDA6170470000F9
:100890000010024029B1064A92690243044B9A6152
:1008A00004E0034A92698243014B9A617047000059
:1008B0000010024030B500210022002400232D4DFD
:1008C0006D6805F00C0121B1042905D0082923D158
:1008D00005E0294D056022E0274D05601FE0254D0C
:1008E0006D6805F47012234D6D6805F4803402259F
:1008F00005EB92421CB9214D554305600BE01D4D9F
:100900006D6805F400351DB11C4D5543056002E0CE
:10091000194D5543056002E0174D056000BF00BF4B
:10092000144D6D6805F0F0010909154D6B5C056803
:10093000DD4045600F4D6D6805F4E061090A104D1A
:100940006B5C4568DD4085600A4D6D6805F460515B
:10095000C90A0B4D6B5C4568DD40C560054D6D688F
:1009600005F44041890B074D6B5CC568B5FBF3F599
:10097000056130BD0010024000127A0000093D0000
:100980003E0000204E00002000B587B00121082065
:10099000FFF780FF01218803FFF76CFF4FF46040F1
:1009A000ADF8180018208DF81B0003208DF81A00F0
:1009B00006A91848FFF7F9FD4FF460411548FFF705
:1009C0007FFE0020ADF804004FF48270ADF8060001
:1009D0000020ADF808000220ADF80A000120ADF8B3
:1009E0000C004002ADF80E003820ADF810000020D9
:1009F000ADF812000720ADF8140001A9064800F078
:100A000065F80121044800F047F8FF2000F006F8DF
:100A100007B000BD000C01400038004070B505462D
:100A2000002405E0601CC4B2C82C01DD002070BDAC
:100A300002210E4800F03CF80028F3D029460B486C
:100A400000F042F8002405E0601CC4B2C82C01DDAF
:100A50000020ECE70121054800F02AF80028F3D037
:100A6000024800F02EF8C0B2E1E700000038004074
:100A700010B50446074800884FF6C771084005497D
:100A8000088008460088204308800121014800F0C2
:100A900003F810BD0038004021B1028842F0400246
:100AA000028004E002884FF6BF731A40028070474C
:100AB0000246002013890B400BB1012000E000200A
:100AC00070470146888970478181704710B50022C0
:100AD000028802F441520B884C8823438C882343BC
:100AE000CC8823430C8923434C8923438C8923439B
:100AF000CC8923431A430280838B4FF2FF74234037
:100B000083830B8A038210BD704710B500F002F892
:100B100010BD00000CB50020019000903348006823
:100B200040F480303149086000BF3048006800F46C
:100B3000003000900198401C0190009818B901986D
:100B4000B0F5A06FF1D12948006800F4003010B171
:100B50000120009001E0002000900098012843D17E
:100B60002348006840F010002149086008460068EA
:100B700020F0030008600846006840F002000860AA
:100B80001A48406819494860084640684860084665
:100B9000406840F4806048600846406820F47C105B
:100BA00048600846406840F4E8104860084600681D
:100BB00040F08070086000BF0C48006800F00070D2
:100BC0000028F9D00948406820F003000749486030
:100BD0000846406840F00200486000BF0348406893
:100BE00000F00C000828F9D10CBD000000100240F4
:100BF00000200240042808D14FF0E021096941F0AB
:100C000004014FF0E022116107E04FF0E021096993
:100C100021F004014FF0E02211617047704700009D
:100C200010B51348006840F00100114908600846FB
:100C30004068104908400E494860084600680E495F
:100C400008400B4908600846006820F480200860CE
:100C50000846406820F4FE0048604FF41F0088609A
:100C6000FFF753FF4FF000600449086010BD00001B
:100C7000001002400000FFF8FFFFF6FE08ED00E064
:100C800010B540F225511B4800F04CF800282FD039
:100C9000184800F003F9C4B217480088052818DD89
:100CA0000A2C16D1154814490988445414A1FFF799
:100CB0005FFB18B101201449087002E002201249BC
:100CC000087000200C49088020210C48FFF762FBC7
:100CD0000EE00A4808490988445407480088401C27
:100CE00005490880084600881F2801DD002008808B
:100CF00010BD0000003801403C00002054200020BE
:100D000053454E44204F4B000900002021B18289F9
:100D100042F40052828104E082894DF6FF731A404A
:100D20008281704770B50246002400230025002010
:100D300040F66A16B14200D100BFC1F3421501F07E
:100D40001F03012606FA03F3012D02D196893340D1
:100D500006E0022D02D1168A334001E0968A334024
:100D60000C12012606FA04F41688344013B10CB1B3
:100D7000012000E0002070BDF0B5034600240026ED
:100D80000025002040F66A17B94200D100BF18467E
:100D9000C1F3421401F01F06012707FA06F5012CE2
:100DA00001D10C3004E0022C01D1103000E01430ED
:100DB0001AB107682F43076002E00768AF43076076
:100DC000F0BD00002DE9F04786B005460E46002430
:100DD000A24600BFA1460027B08900B100BF2F4640
:100DE0002C8A4CF6FF700440F08804432C82AC89B6
:100DF0004EF6F3100440B0883189084371890843E6
:100E00000443AC81AC8A4FF6FF400440B0890443F0
:100E1000AC8201A8FFF74EFD1F48874202D1DDF8E2
:100E200010A001E0DDF80CA0A88900F4004040B15A
:100E30000AEBCA0000EB0A1031684900B0FBF1F878
:100E400007E00AEBCA0000EB0A1031688900B0FB2A
:100E5000F1F86420B8FBF0F004012009642101FBE3
:100E60001089A88900F4004040B1322000EBC9008D
:100E7000B0FBF1F000F00700044308E0322000EB83
:100E800009106421B0FBF1F000F00F0004432C8145
:100E900006B0BDE8F08700000038014001468888B0
:100EA000C0F30800704700BFFEE700BF70470000B6
:100EB00010B500201349087000BF13480088811046
:100EC000124800F0BDFC114800F06AFC10490860AF
:100ED0000C490878411C0B4A1170032809DD0A48A7
:100EE000008882100A4801680AA0FFF799F90120DA
:100EF00010BD0748006804490988B0EBA10FDCD198
:100F00000020F5E7080000200C00002004AC3300AE
:100F1000140000207772697465207270203D2025CE
:100F2000642C206E6F742065712025642C20736FF3
:100F3000206973206572726F72210D0A0000000033
:100F400010B56FF00400FFF755FE0A4800680A4923
:100F5000B0FBF1F0094908700846007800EB400149
:100F6000C1EBC0104FF6FF7101EAC00004490880D0
:100F700010BD00002000002000127A003400002084
:100F8000360000200146114A12884A434FF0E02300
:100F90005A6100229A611A46126942F001021A61EE
:100FA00000BF4FF0E022106900F001021AB100F416
:100FB0008032002AF5D04FF0E022126922F00102BF
:100FC0004FF0E0231A6100229A617047360000203A
:100FD0000146114A12784A434FF0E0235A61002239
:100FE0009A611A46126942F001021A6100BF4FF07D
:100FF000E022106900F001021AB100F48032002AE8
:10100000F5D04FF0E022126922F001024FF0E02308
:101010001A6100229A6170473400002000BF054A1F
:10102000128802F04002002AF9D0C2B2014B1B1D07
:101030001A8070470038014010B500203849087008
:1010400000BF384A3849394800F0FAFA3548006894
:101050003749096888423CD133480068B0F5806F51
:1010600037D20120334908702E4800682E4909689C
:10107000884205D82C4800682A490968401A06E0C9
:1010800028480068C0F580602749096808442A4953
:10109000088008460088202805DA002027490870C3
:1010A0002449087014E026482649097830F81110C0
:1010B0002148008801EB8000B0F5805F05DD00204D
:1010C0001E4908701B49087002E001201B49087086
:1010D00022E013490878411C114A117003281ADDD7
:1010E000114803680F4802681148016816A0FFF70D
:1010F00097F80C480068401C18B90B480068401C61
:1011000028B10848006820B90748006808B90120DC
:1011100010BD0220FCE794E700BF0020F8E70000C4
:10112000080000201C0000201800002000AC330044
:1011300014000020060000200E0000200700002000
:10114000020000200000002072656164207270209F
:10115000616E64207770206572726F7221207272E6
:1011600070203D2025642C20207270203D202564B5
:101170002C20207770203D202564210D0A000000DE
:10118000FFF7DEFE4FF4A060FFF768FB4FF461301D
:1011900000F0A8F9FFF798FA00F00AFA62A0FFF74A
:1011A0003FF8644800F0FCFA6349086008460168AB
:1011B00062A0FFF735F8664800F0F2FA654908606A
:1011C0006348001D00F0ECFA5B49086008460268BD
:1011D0006048016860A0FFF723F8012064490860B7
:1011E000FFF796FA4FF480305A4908605248006879
:1011F0006049086000BF00205F4908705F490870BF
:1012000000F068F95E49884200D051E05048001D66
:1012100000F0C6FA5749086049E0574800780128AD
:1012200010D15648007801280CD1002050490860A0
:1012300000F0B2F8FFF73CFE00B139E001204C4964
:1012400008600DE0FFF7F8FE4E4908800846008868
:10125000012800D150E04B480088022800D127E047
:1012600049484A49097830F8110080281FDD0020DC
:101270003F49091F0860444A444B1B7832F8131059
:10128000434A424B1B7802EB033000F07BF93F48A6
:10129000007880F001003D49087000203A493B4A3F
:1012A000127821F8120001203A49C1F89401B4E7FC
:1012B00005203049086000202D49086014E02C48C2
:1012C000001F006808B9012000E000202849091F1C
:1012D00008606420FFF756FE00F06AF900F0FAF8A3
:1012E0002749884200D186E722490868411E214AE1
:1012F00011600028E3D17EE715E01D48001F00685B
:1013000008B9012000E000201949091F08604FF4C6
:10131000FA70FFF737FE00F04BF900F0DBF81849E0
:10132000884200D167E7E8E768616C7420637075F4
:10133000090000001870101A1C000020726561641A
:101340002074657374203D2025780D0A000000008C
:1013500000AC3300180000207770203D2025642C5D
:101360002020207270203D2025640D0A000000001E
:1013700098012342140000200600002007000020EE
:101380000100CDAB10000020020000200000002072
:10139000540000200000234270B5414800684149D4
:1013A000096888422BD2404B404C247803EB04332D
:1013B0003F4C3E4D2D7834F8154019193D4B1B8894
:1013C0004FF6FF7404EA8302354B1B683A4C04EB7A
:1013D000830000F097F9394908803148006809888E
:1013E00001EB8000364908803149304A127801EB20
:1013F00042000188314A12881144018044E02A4B9E
:101400002A4C247803EB0433294C284D2D7834F8EA
:1014100015401919224B1B684FF48054A4EB830329
:101420009AB21F4B1B68244C04EB830000F06AF94E
:10143000224908801E491D4A127801EB42000188AA
:101440001E4A1288114401801748184B1B7800EB84
:101450000330174B154C247833F81430C118114859
:1014600000684FF6FF7303EA8002134800F04AF960
:10147000134908800E490D4A127801EB4200018899
:101480000F4A12881144018000200E4908700E494D
:1014900008700E4908704FF480300D49086070BD27
:1014A0001C00002018000020540000200000002034
:1014B000020000200E00002008AC33000A000020CB
:1014C0000C0000200800002006000020070000207B
:1014D0001400002010B5024800F062F910BD0000B1
:1014E0001870101A10B586B00446012144F20400A9
:1014F000FFF7D0F94FF40070ADF8140003208DF819
:10150000160018208DF8170005A91C48FFF74DF8A4
:101510004FF48060ADF8140004208DF8170005A981
:101520001648FFF742F825208DF8000003208DF8BB
:1015300001008DF8020001208DF803006846FFF7D6
:1015400055F901940020ADF80800ADF80A00ADF897
:101550000C00ADF810000C20ADF80E0001A90848F1
:10156000FFF730FC012240F225510548FFF704FC4B
:1015700001210348FFF7CAFB06B010BD0008014077
:101580000038014010B5024600200BE0135C074C08
:10159000238000BF054B1B1F1B8803F04003002B5B
:1015A000F8D0401C8842F1DB10BD00000438014037
:1015B00008B501210820FFF76DF94FF48050ADF810
:1015C000000010208DF8030003208DF8020069460A
:1015D0000E48FEF7EAFF4FF480510C48FFF770F811
:1015E00001200B490860FFF7CFF90020FFF740FA10
:1015F00000200849C1F8B00100F00EF801200449AC
:1016000008601420FFF7E4FC08BD0000000C014056
:10161000B08121420080214238B508A000680090C6
:10162000002407E01DF80400FFF7F8F90A20FFF78F
:10163000CFFC641C022CF5DB38BD0000111F00003C
:101640002DE9FF4705460E461746002002900390FD
:1016500000900190E8460DF108090B208DF8080074
:10166000280E8DF80900280C8DF80A00280A8DF83C
:101670000B00E8B28DF80C0000202149086000241E
:1016800004E019F8010BFFF7C9F9641C052CF8DB1D
:10169000002403E0FF20FFF7C1F9641C042CF9DBF0
:1016A000002405E0FF20FFF7B9F908F8010B641CDE
:1016B000082CF7DB0120124908601420FFF788FC92
:1016C0009DF807009DF8061040EA01209DF80510DE
:1016D00040EA01409DF8041040EA016038609DF83E
:1016E00003009DF8021040EA01209DF8011040EA35
:1016F00001409DF8001040EA01603060BDE8FF87BE
:10170000B08121422DE9F04704460F46164604F009
:101710000308042E02DA0020BDE8F087C8F10401B6
:10172000701AC11700EB91718910A0EB810101F0D3
:10173000FF090020194908600B20FFF76FF9200E00
:10174000FFF76CF9C4F30740FFF768F9C4F307200B
:10175000FFF764F9E0B2FFF761F9002504E0FF202C
:10176000FFF75CF9681C85B208F10400A842F6DCBA
:10177000002506E0FF20FFF751F907F8010B681C70
:1017800085B2A6EB0900A842F4DC012003490860F9
:101790000A20FFF71DFC2846BEE70000B081214269
:1017A0002DE9FE43054600200190029000906E4610
:1017B00001AF80460B208DF80400280E8DF805003F
:1017C000280C8DF80600280A8DF80700E8B28DF87D
:1017D0000800002019490860002404E017F8010BF4
:1017E000FFF71CF9641C052CF8DB002403E0FF2044
:1017F000FFF714F9641C042CF9DB002405E0FF203A
:10180000FFF70CF906F8010B641C042CF7DB012030
:101810000A4908601420FFF7DBFB9DF803009DF8E0
:10182000021040EA01209DF8011040EA01409DF8B5
:10183000001040EA01684046BDE8FE83B0812142C5
:10184000FEB504460D4600200090019002906F46C0
:1018500002208DF80000200E8DF80100200C8DF87C
:101860000200200A8DF80300E0B28DF80400280E73
:101870008DF80500280C8DF80600280A8DF8070061
:10188000E8B28DF80800002008490860002604E04E
:1018900017F8010BFFF7C2F8761C092EF8DB0120C0
:1018A000024908601420FFF793FBFEBDB08121427E
:1018B0003031323334353637383941424344454686
:1018C0004030580030313233343536373839616280
:1018D0006364656640307800F81800080000002056
:1018E000540000006C0100084C190008540000204E
:1018F00084260000880100080000000000000000AD
:1019000000010000000000000000000000000000D6
:10191000000000000000000000A24A0400000000D7
:10192000000000000102030406070809000000008F
:10193000000000000000000000000102030401029A
:0C19400003040607080902040608000062
:0400000508000131BD
:00000001FF
